:020000040000FA
:0600000000000FEF00F00C
:020006000000F8
:0800180000002CEF00F013ECD6
:1000200000F03FEF00F00101000E006E016E0F01C5
:1000300093900F018A900F016A0ED36E0F01000E8C
:10004000CA6EC50ECC6E0F019D82F28EF28CCA84F0
:100050000101260E026E12000F019EA258EF00F061
:100060009E92C50ECC6E0101FF0E01623DEF00F0C5
:10007000000E016E002A3EEF00F0012A100001017F
:10008000010E00624FEF00F0F40E01604AEF00F045
:1000900058EF00F0000E016E006E0F018A80010122
:1000A0000250016056EF00F058EF00F00F018A9007
:0400B0003FEF00F02E
:020000040030CA
:010000005DA2
:0100010048B6
:010002007F7E
:010003007C80
:0100050009F1
:010006009168
:010008000FE8
:01000900C036
:01000A000FE6
:01000B00E014
:01000C000FE4
:01000D0040B2
:00000001FF
